S00C0000415050312E7372656306
S11300000C942A000C943F000C943F000C943F0085
S11300100C943F000C943F000C943F000C943F0060
S11300200C943F000C943F000C943F000C943F0050
S11300300C943F000C943F000C943F000C943F0040
S11300400C943F000C943F000C943F000C943F0030
S11300500C943F0011241FBECFE5D8E0DEBFCDBF16
S113006010E0A0E6B0E0E2E4F8E002C005900D92F2
S1130070A83FB107D9F70E942C010C941F040C94DB
S113008000000E946A020E94E9010E94ED0241E020
S113009061E081E00E94060341E062E081E00E94A9
S11300A0060341E060E081E00E94060383E00C94D3
S11300B0F7020F931F93CF938C0160E082E00E94BC
S11300C0DF02C0E00E9407028031E1F38B3069F463
S11300D0C1506C2F82E00E94DF0280E20E94A602DF
S11300E06C2F82E00E94DF02EDCFF801EC0FF11DCE
S11300F08083805D0E94A6022FE788E391E021506F
S113010080409040E1F700C000006C2F82E00E9424
S1130110DF028AE20E94A6028FE493EC0197F1F7D2
S113012000C00000CF5FC43068F281E0CF911F911E
S11301300F910895CF93DF9300D000D0CDB7DEB7F1
S113014040917A0050917B0060917C0070917D0019
S113015049835A836B837C83FE0131969E012B5F16
S11301603F4FDC015D91CD014191541305C0E2176D
S1130170F307B9F781E001C080E00F900F900F9072
S11301800F90DF91CF91089581E00E94440264E0D2
S113019081E00E94DF028EE790E00E94CC0262E0E0
S11301A082E00E94DF0287E890E00E94CC02C9E06E
S11301B06DE082E00E94DF0280E38C0F0E94A602C1
S11301C08C2F0E94F70241E062E081E00E947303F9
S11301D041E060E081E00E9473032FE986E891E04A
S11301E0215080409040E1F700C0000040E062E010
S11301F081E00E94730340E060E081E00E947303A9
S11302002FE986E891E0215080409040E1F700C05A
S11302100000C15069F681E00E94440262E081E07E
S11302200E94DF0284E990E00E94CC0265E082E053
S11302300E94DF0282EA90E00E94CC0280E00E94E9
S1130240F70241E062E081E00E94730341E060E074
S113025081E00E947303F5CFCF93DF9300D000D0E9
S1130260CDB7DEB70E94410010E083E3F82E03E02F
S113027081E00E94440260E081E00E94DF0289EA9A
S113028090E00E94CC0260E082E00E94DF02CE0196
S113029001960E945900CE0101960E949A0088237B
S11302A051F181E00E94440263E081E00E94DF0298
S11302B089EB90E00E94CC0263E082E00E94DF02BE
S11302C083EC90E00E94CC0241E061E081E00E9476
S11302D073032FE78AE196E0215080409040E1F7D4
S11302E000C0000040E061E081E00E9473030E94CE
S11302F0410010E0BDCF1F5F81E0133000F10E9488
S1130300440264E081E00E94DF028CEC90E00E94F1
S1130310CC0262E082E00E94DF0283ED90E00E9462
S1130320CC0280E00E94F7022FE38DE093E021509D
S113033080409040E1F700C000000E94C4000E9489
S1130340440260E081E00E94DF0282EE90E00E94BD
S1130350CC0264E082E00E94DF0281EF90E00E9420
S1130360CC028F2D811B0E94A602802F811B0E942C
S1130370F70241E062E081E00E94730341E060E043
S113038081E00E9473032FE986E891E021508040C8
S11303909040E1F700C0000040E062E081E00E948C
S11303A0730340E060E081E00E9473032FE986E874
S11303B091E0215080409040E1F700C000002FE719
S11303C08AE196E0215080409040E1F700C00000AF
S11303D04FCFCF93C0E040E06C2F83E00E94060330
S11303E041E06C2F83E00E947303CF5FC43099F720
S11303F041E06C2F83E00E94060341E06C2F83E010
S11304000E947303CF5FC83099F7CF910895FF928C
S11304100F931F93CF93DF9300E010E084E0F82E56
S1130420F00E40E06F2D83E00E947303C0E06C2F58
S113043083E00E94DF03811110C0F80184E0C89FAB
S1130440E00DF11D1124E05AFF4FD0816C2F83E0A1
S11304500E94DF038823D1F304C0CF5FC43039F78F
S1130460D0E141E06F2D83E00E947303D03129F481
S11304700F5F1F4F0430110589F68D2FDF91CF9147
S11304801F910F91FF900895CF93C82F40E063E030
S113049081E00E94730340E064E081E00E94730302
S11304A040E065E081E00E9473036C2F82E00E94CB
S11304B00C0441E065E081E00E94730381EE94E066
S11304C00197F1F700C0000040E065E081E0CF91C2
S11304D00C9473036FEF82E00E94F90341E063E040
S11304E081E00E94060341E064E081E00E9406038B
S11304F041E065E081E00E94060340E065E081E0C0
S11305000E94730387EA91E60197F1F700C00000A7
S113051088E30E94440281EE94E00197F1F700C061
S113052000008CE00E94440281EE94E00197F1F710
S113053000C0000081E00E94440281EE94E0019733
S1130540F1F700C0000086E00C944402CF93C82F5A
S113055041E063E081E00E94730340E064E081E0F5
S11305600E94730340E065E081E00E9473036C2FF6
S113057082E00E940C0441E065E081E00E94730384
S113058081EE94E00197F1F700C0000040E065E0DF
S113059081E0CF910C9473030F931F93CF938C013D
S11305A0C0E0F801EC0FF11D8081882321F00E9446
S11305B0A602CF5FF6CFCF911F910F9108956031BE
S11305C058F4813021F0823021F490EC01C090E89D
S11305D0960F892F0C944402089541E067E081E06E
S11305E00E94060340E067E081E00C947303CF931C
S11305F0C82F6FEF84E00E94F903EC2FF0E0E0597C
S1130600FF4F608184E0CF910C940C04823019F187
S113061018F4813039F008958330A9F1843009F455
S11306204AC0089541110AC02AB381E090E001C094
S1130630880F6A95EAF7809582230BC0413009F050
S113064051C02AB381E090E001C0880F6A95EAF7AF
S1130650822B8ABB089541110AC027B381E090E040
S113066001C0880F6A95EAF7809582230AC0413059
S1130670C9F527B381E090E001C0880F6A95EAF7D5
S1130680822B87BB089541110AC024B381E090E016
S113069001C0880F6A95EAF7809582230AC0413029
S11306A009F524B381E090E001C0880F6A95EAF768
S11306B0822B84BB089541110AC021B381E090E0EC
S11306C001C0880F6A95EAF7809582230AC04130F9
S11306D049F421B381E090E001C0880F6A95EAF7FC
S11306E0822B81BB0895823011F118F4813039F0E6
S11306F008958330A1F1843009F449C0089541304C
S113070049F42BB381E090E001C0880F6A95EAF7C1
S1130710822B0BC0411152C02BB381E090E001C089
S1130720880F6A95EAF7809582238BBB0895413040
S113073049F428B381E090E001C0880F6A95EAF794
S1130740822B0BC041113AC028B381E090E001C074
S1130750880F6A95EAF78095822388BB0895413013
S113076049F425B381E090E001C0880F6A95EAF767
S1130770822B0BC0411122C025B381E090E001C05F
S1130780880F6A95EAF78095822385BB08954130E6
S113079049F422B381E090E001C0880F6A95EAF73A
S11307A0822B0BC041110AC022B381E090E001C04A
S11307B0880F6A95EAF78095822382BB0895823078
S11307C059F020F4813099F489B309C0833031F0B1
S11307D0843069F480B303C086B301C083B390E06E
S11307E002C0959587956A95E2F7982F9170892FA5
S11307F00895823059F018F4813031F0089583302F
S113080039F0843039F008956ABB089567BB0895C0
S113081064BB089561BB0895823059F018F48130A7
S113082031F00895833039F0843039F008956BBB8A
S1130830089568BB089565BB089562BB0895F89454
S1050840FFCFE4
S1130842000102030405060708090A0B0C0D0E0F2A
S11308523F065B4F666D7D077F6F010203045741BC
S1130862524E494E4721004558504C4F4445204969
S11308724E3A200053595354454D204C4F434B4557
S11308824400414C41524D2100454E5445522050A2
S1130892415353574F52443A004143434553532023
S11308A24F4B0057454C434F4D45210044454E495B
S11308B24544004C4F434B494E47205359535445EA
S11308C24D0057524F4E472050415353574F5244B5
S10B08D2004C4546543A200095
S9030000FC
